{
  "abi": [
    {
      "inputs": [],
      "stateMutability": "nonpayable",
      "type": "constructor"
    },
    {
      "anonymous": false,
      "inputs": [
        {
          "indexed": true,
          "internalType": "address",
          "name": "owner",
          "type": "address"
        },
        {
          "indexed": true,
          "internalType": "address",
          "name": "approved",
          "type": "address"
        },
        {
          "indexed": true,
          "internalType": "uint256",
          "name": "tokenId",
          "type": "uint256"
        }
      ],
      "name": "Approval",
      "type": "event"
    },
    {
      "anonymous": false,
      "inputs": [
        {
          "indexed": true,
          "internalType": "address",
          "name": "owner",
          "type": "address"
        },
        {
          "indexed": true,
          "internalType": "address",
          "name": "operator",
          "type": "address"
        },
        {
          "indexed": false,
          "internalType": "bool",
          "name": "approved",
          "type": "bool"
        }
      ],
      "name": "ApprovalForAll",
      "type": "event"
    },
    {
      "anonymous": false,
      "inputs": [
        {
          "indexed": false,
          "internalType": "uint256",
          "name": "level",
          "type": "uint256"
        }
      ],
      "name": "NewNFT",
      "type": "event"
    },
    {
      "anonymous": false,
      "inputs": [
        {
          "indexed": true,
          "internalType": "address",
          "name": "from",
          "type": "address"
        },
        {
          "indexed": true,
          "internalType": "address",
          "name": "to",
          "type": "address"
        },
        {
          "indexed": true,
          "internalType": "uint256",
          "name": "tokenId",
          "type": "uint256"
        }
      ],
      "name": "Transfer",
      "type": "event"
    },
    {
      "inputs": [
        {
          "internalType": "address",
          "name": "to",
          "type": "address"
        },
        {
          "internalType": "uint256",
          "name": "tokenId",
          "type": "uint256"
        }
      ],
      "name": "approve",
      "outputs": [],
      "stateMutability": "nonpayable",
      "type": "function"
    },
    {
      "inputs": [
        {
          "internalType": "address",
          "name": "owner",
          "type": "address"
        }
      ],
      "name": "balanceOf",
      "outputs": [
        {
          "internalType": "uint256",
          "name": "",
          "type": "uint256"
        }
      ],
      "stateMutability": "view",
      "type": "function"
    },
    {
      "inputs": [],
      "name": "checkParticipation",
      "outputs": [
        {
          "internalType": "uint256",
          "name": "",
          "type": "uint256"
        }
      ],
      "stateMutability": "nonpayable",
      "type": "function"
    },
    {
      "inputs": [
        {
          "internalType": "uint256",
          "name": "tokenId",
          "type": "uint256"
        }
      ],
      "name": "getApproved",
      "outputs": [
        {
          "internalType": "address",
          "name": "",
          "type": "address"
        }
      ],
      "stateMutability": "view",
      "type": "function"
    },
    {
      "inputs": [
        {
          "internalType": "address",
          "name": "owner",
          "type": "address"
        },
        {
          "internalType": "address",
          "name": "operator",
          "type": "address"
        }
      ],
      "name": "isApprovedForAll",
      "outputs": [
        {
          "internalType": "bool",
          "name": "",
          "type": "bool"
        }
      ],
      "stateMutability": "view",
      "type": "function"
    },
    {
      "inputs": [],
      "name": "mint",
      "outputs": [],
      "stateMutability": "nonpayable",
      "type": "function"
    },
    {
      "inputs": [],
      "name": "name",
      "outputs": [
        {
          "internalType": "string",
          "name": "",
          "type": "string"
        }
      ],
      "stateMutability": "view",
      "type": "function"
    },
    {
      "inputs": [
        {
          "internalType": "uint256",
          "name": "tokenId",
          "type": "uint256"
        }
      ],
      "name": "ownerOf",
      "outputs": [
        {
          "internalType": "address",
          "name": "",
          "type": "address"
        }
      ],
      "stateMutability": "view",
      "type": "function"
    },
    {
      "inputs": [
        {
          "internalType": "address",
          "name": "from",
          "type": "address"
        },
        {
          "internalType": "address",
          "name": "to",
          "type": "address"
        },
        {
          "internalType": "uint256",
          "name": "tokenId",
          "type": "uint256"
        }
      ],
      "name": "safeTransferFrom",
      "outputs": [],
      "stateMutability": "nonpayable",
      "type": "function"
    },
    {
      "inputs": [
        {
          "internalType": "address",
          "name": "from",
          "type": "address"
        },
        {
          "internalType": "address",
          "name": "to",
          "type": "address"
        },
        {
          "internalType": "uint256",
          "name": "tokenId",
          "type": "uint256"
        },
        {
          "internalType": "bytes",
          "name": "data",
          "type": "bytes"
        }
      ],
      "name": "safeTransferFrom",
      "outputs": [],
      "stateMutability": "nonpayable",
      "type": "function"
    },
    {
      "inputs": [
        {
          "internalType": "address",
          "name": "operator",
          "type": "address"
        },
        {
          "internalType": "bool",
          "name": "approved",
          "type": "bool"
        }
      ],
      "name": "setApprovalForAll",
      "outputs": [],
      "stateMutability": "nonpayable",
      "type": "function"
    },
    {
      "inputs": [
        {
          "internalType": "bytes4",
          "name": "interfaceId",
          "type": "bytes4"
        }
      ],
      "name": "supportsInterface",
      "outputs": [
        {
          "internalType": "bool",
          "name": "",
          "type": "bool"
        }
      ],
      "stateMutability": "view",
      "type": "function"
    },
    {
      "inputs": [],
      "name": "symbol",
      "outputs": [
        {
          "internalType": "string",
          "name": "",
          "type": "string"
        }
      ],
      "stateMutability": "view",
      "type": "function"
    },
    {
      "inputs": [
        {
          "internalType": "uint256",
          "name": "tokenId",
          "type": "uint256"
        }
      ],
      "name": "tokenURI",
      "outputs": [
        {
          "internalType": "string",
          "name": "",
          "type": "string"
        }
      ],
      "stateMutability": "view",
      "type": "function"
    },
    {
      "inputs": [
        {
          "internalType": "address",
          "name": "from",
          "type": "address"
        },
        {
          "internalType": "address",
          "name": "to",
          "type": "address"
        },
        {
          "internalType": "uint256",
          "name": "tokenId",
          "type": "uint256"
        }
      ],
      "name": "transferFrom",
      "outputs": [],
      "stateMutability": "nonpayable",
      "type": "function"
    }
  ],
  "bytecode": {
    "object": "0x60806040523480156200001157600080fd5b506040518060400160405280601681526020017f50726f6f66206f662050617274696369706174696f6e00000000000000000000815250604051806040016040528060038152602001620506f560ec1b815250816000908162000075919062000152565b50600162000084828262000152565b5050506200009e6007620000a460201b6200079c1760201c565b6200021e565b80546001019055565b634e487b7160e01b600052604160045260246000fd5b600181811c90821680620000d857607f821691505b602082108103620000f957634e487b7160e01b600052602260045260246000fd5b50919050565b601f8211156200014d57600081815260208120601f850160051c81016020861015620001285750805b601f850160051c820191505b81811015620001495782815560010162000134565b5050505b505050565b81516001600160401b038111156200016e576200016e620000ad565b62000186816200017f8454620000c3565b84620000ff565b602080601f831160018114620001be5760008415620001a55750858301515b600019600386901b1c1916600185901b17855562000149565b600085815260208120601f198616915b82811015620001ef57888601518255948401946001909101908401620001ce565b50858210156200020e5787850151600019600388901b60f8161c191681555b5050505050600190811b01905550565b611e88806200022e6000396000f3fe608060405234801561001057600080fd5b50600436106100f55760003560e01c80636352211e11610097578063b88d4fde11610066578063b88d4fde146101f4578063c1e6cb9014610207578063c87b56dd1461020f578063e985e9c51461022257600080fd5b80636352211e146101a557806370a08231146101b857806395d89b41146101d9578063a22cb465146101e157600080fd5b8063095ea7b3116100d3578063095ea7b3146101625780631249c58b1461017757806323b872dd1461017f57806342842e0e1461019257600080fd5b806301ffc9a7146100fa57806306fdde0314610122578063081812fc14610137575b600080fd5b61010d6101083660046117ef565b61025e565b60405190151581526020015b60405180910390f35b61012a6102b0565b604051610119919061185c565b61014a61014536600461186f565b610342565b6040516001600160a01b039091168152602001610119565b6101756101703660046118a4565b610369565b005b610175610483565b61017561018d3660046118ce565b6104f5565b6101756101a03660046118ce565b610526565b61014a6101b336600461186f565b610541565b6101cb6101c636600461190a565b6105a1565b604051908152602001610119565b61012a610627565b6101756101ef366004611925565b610636565b610175610202366004611977565b610645565b6101cb61067d565b61012a61021d36600461186f565b61068c565b61010d610230366004611a53565b6001600160a01b03918216600090815260056020908152604080832093909416825291909152205460ff1690565b60006001600160e01b031982166380ac58cd60e01b148061028f57506001600160e01b03198216635b5e139f60e01b145b806102aa57506301ffc9a760e01b6001600160e01b03198316145b92915050565b6060600080546102bf90611a86565b80601f01602080910402602001604051908101604052809291908181526020018280546102eb90611a86565b80156103385780601f1061030d57610100808354040283529160200191610338565b820191906000526020600020905b81548152906001019060200180831161031b57829003601f168201915b5050505050905090565b600061034d826107a5565b506000908152600460205260409020546001600160a01b031690565b600061037482610541565b9050806001600160a01b0316836001600160a01b0316036103e65760405162461bcd60e51b815260206004820152602160248201527f4552433732313a20617070726f76616c20746f2063757272656e74206f776e656044820152603960f91b60648201526084015b60405180910390fd5b336001600160a01b038216148061040257506104028133610230565b6104745760405162461bcd60e51b815260206004820152603d60248201527f4552433732313a20617070726f76652063616c6c6572206973206e6f7420746f60448201527f6b656e206f776e6572206f7220617070726f76656420666f7220616c6c00000060648201526084016103dd565b61047e8383610807565b505050565b600061048e60075490565b905061049a3382610875565b60006104a461088f565b90506104b0818361095e565b6104be600780546001019055565b6040518181527fab4c6bf8c7a19542ce78414fa3ee1fbe5397bd43ed6aff6c76531a0fef9e79d99060200160405180910390a15050565b6104ff3382610a44565b61051b5760405162461bcd60e51b81526004016103dd90611ac0565b61047e838383610ac2565b61047e83838360405180602001604052806000815250610645565b6000818152600260205260408120546001600160a01b0316806102aa5760405162461bcd60e51b8152602060048201526018602482015277115490cdcc8c4e881a5b9d985b1a59081d1bdad95b88125160421b60448201526064016103dd565b60006001600160a01b03821661060b5760405162461bcd60e51b815260206004820152602960248201527f4552433732313a2061646472657373207a65726f206973206e6f7420612076616044820152683634b21037bbb732b960b91b60648201526084016103dd565b506001600160a01b031660009081526003602052604090205490565b6060600180546102bf90611a86565b610641338383610c26565b5050565b61064f3383610a44565b61066b5760405162461bcd60e51b81526004016103dd90611ac0565b61067784848484610cf4565b50505050565b600061068761088f565b905090565b6060610697826107a5565b600082815260066020526040812080546106b090611a86565b80601f01602080910402602001604051908101604052809291908181526020018280546106dc90611a86565b80156107295780601f106106fe57610100808354040283529160200191610729565b820191906000526020600020905b81548152906001019060200180831161070c57829003601f168201915b50505050509050600061074760408051602081019091526000815290565b90508051600003610759575092915050565b81511561078b578082604051602001610773929190611b0d565b60405160208183030381529060405292505050919050565b61079484610d27565b949350505050565b80546001019055565b6000818152600260205260409020546001600160a01b03166108045760405162461bcd60e51b8152602060048201526018602482015277115490cdcc8c4e881a5b9d985b1a59081d1bdad95b88125160421b60448201526064016103dd565b50565b600081815260046020526040902080546001600160a01b0319166001600160a01b038416908117909155819061083c82610541565b6001600160a01b03167f8c5be1e5ebec7d5bd14f71427d1e84f3dd0314c0f7b2291e5b200ac8c7c3b92560405160405180910390a45050565b610641828260405180602001604052806000815250610d9b565b600080600061089c610dce565b905080156108b257816108ae81611b3c565b9250505b60006108bc610ec0565b905080156108d257826108ce81611b3c565b9350505b60006108dc610fa8565b905080156108f257836108ee81611b3c565b9450505b60006108fc611091565b90508015610912578461090e81611b3c565b9550505b600061091c61117a565b90508015610932578561092e81611b3c565b9650505b600061093c611266565b90508015610952578661094e81611b3c565b9750505b50949695505050505050565b8160000361098f576000604051806060016040528060358152602001611d7f60359139905061098d828261134f565b505b816001148061099e5750816002145b156109cc576000604051806060016040528060358152602001611db46035913990506109ca828261134f565b505b81600314806109db5750816004145b15610a09576000604051806060016040528060358152602001611de9603591399050610a07828261134f565b505b8160051480610a185750816006145b15610641576000604051806060016040528060358152602001611e1e60359139905061047e828261134f565b600080610a5083610541565b9050806001600160a01b0316846001600160a01b03161480610a9757506001600160a01b0380821660009081526005602090815260408083209388168352929052205460ff165b806107945750836001600160a01b0316610ab084610342565b6001600160a01b031614949350505050565b826001600160a01b0316610ad582610541565b6001600160a01b031614610afb5760405162461bcd60e51b81526004016103dd90611b63565b6001600160a01b038216610b5d5760405162461bcd60e51b8152602060048201526024808201527f4552433732313a207472616e7366657220746f20746865207a65726f206164646044820152637265737360e01b60648201526084016103dd565b826001600160a01b0316610b7082610541565b6001600160a01b031614610b965760405162461bcd60e51b81526004016103dd90611b63565b600081815260046020908152604080832080546001600160a01b03199081169091556001600160a01b0387811680865260038552838620805460001901905590871680865283862080546001019055868652600290945282852080549092168417909155905184937fddf252ad1be2c89b69c2b068fc378daa952ba7f163c4a11628f55a4df523b3ef91a4505050565b816001600160a01b0316836001600160a01b031603610c875760405162461bcd60e51b815260206004820152601960248201527f4552433732313a20617070726f766520746f2063616c6c65720000000000000060448201526064016103dd565b6001600160a01b03838116600081815260056020908152604080832094871680845294825291829020805460ff191686151590811790915591519182527f17307eab39ab6107e8899845ad3d59bd9653f200f220920489ca2b5937696c31910160405180910390a3505050565b610cff848484610ac2565b610d0b848484846113e2565b6106775760405162461bcd60e51b81526004016103dd90611ba8565b6060610d32826107a5565b6000610d4960408051602081019091526000815290565b90506000815111610d695760405180602001604052806000815250610d94565b80610d73846114e3565b604051602001610d84929190611b0d565b6040516020818303038152906040525b9392505050565b610da58383611576565b610db260008484846113e2565b61047e5760405162461bcd60e51b81526004016103dd90611ba8565b604051336024820152600090734c5f90c50ca9f849bb75d93a393a4e1b6e68accb9082908190839060440160408051601f198184030181529181526020820180516001600160e01b03166370a0823160e01b17905251610e2e9190611bfa565b6000604051808303816000865af19150503d8060008114610e6b576040519150601f19603f3d011682016040523d82523d6000602084013e610e70565b606091505b509150915081610eb55760405162461bcd60e51b815260206004820152601060248201526f1898dd0818da1958dac819985a5b195960821b60448201526064016103dd565b602001519392505050565b6040513360248201526000907373a2de6a8370108d43c3c80430c84c30df323ed29082908190839060440160408051601f198184030181529181526020820180516001600160e01b03166370a0823160e01b17905251610f209190611bfa565b6000604051808303816000865af19150503d8060008114610f5d576040519150601f19603f3d011682016040523d82523d6000602084013e610f62565b606091505b509150915081610eb55760405162461bcd60e51b81526020600482015260116024820152701c1858dd0818da1958dac819985a5b1959607a1b60448201526064016103dd565b604051336024820152600090734620d7a5f58f77eee69a38afdaa8f2ffb10b42b69082908190839060440160408051601f198184030181529181526020820180516001600160e01b03166370a0823160e01b179052516110089190611bfa565b6000604051808303816000865af19150503d8060008114611045576040519150601f19603f3d011682016040523d82523d6000602084013e61104a565b606091505b509150915081610eb55760405162461bcd60e51b8152602060048201526012602482015271195d1a1a5e0818da1958dac819985a5b195960721b60448201526064016103dd565b6040513360248201526000907386f61eb83e10e914fc6f321f5dd3c2dd4860a0039082908190839060440160408051601f198184030181529181526020820180516001600160e01b03166370a0823160e01b179052516110f19190611bfa565b6000604051808303816000865af19150503d806000811461112e576040519150601f19603f3d011682016040523d82523d6000602084013e611133565b606091505b509150915081610eb55760405162461bcd60e51b81526020600482015260126024820152711b58d95b1bc818da1958dac819985a5b195960721b60448201526064016103dd565b60405133602482015260009073f163686d50c800c49ed58836d3a4d1fba057cee69082908190839060440160408051601f198184030181529181526020820180516001600160e01b03166370a0823160e01b179052516111da9190611bfa565b6000604051808303816000865af19150503d8060008114611217576040519150601f19603f3d011682016040523d82523d6000602084013e61121c565b606091505b509150915081610eb55760405162461bcd60e51b81526020600482015260156024820152741cdbdd5b1b985b594818da1958dac819985a5b1959605a1b60448201526064016103dd565b604051336024820152600090733d79edaabc0eab6f08ed885c05fc0b014290d95a9082908190839060440160408051601f198184030181529181526020820180516001600160e01b03166370a0823160e01b179052516112c69190611bfa565b6000604051808303816000865af19150503d8060008114611303576040519150601f19603f3d011682016040523d82523d6000602084013e611308565b606091505b509150915081610eb55760405162461bcd60e51b81526020600482015260126024820152711d5b9a5b1c0818da1958dac819985a5b195960721b60448201526064016103dd565b6000828152600260205260409020546001600160a01b03166113ca5760405162461bcd60e51b815260206004820152602e60248201527f45524337323155524953746f726167653a2055524920736574206f66206e6f6e60448201526d32bc34b9ba32b73a103a37b5b2b760911b60648201526084016103dd565b600082815260066020526040902061047e8282611c64565b60006001600160a01b0384163b156114d857604051630a85bd0160e11b81526001600160a01b0385169063150b7a0290611426903390899088908890600401611d24565b6020604051808303816000875af1925050508015611461575060408051601f3d908101601f1916820190925261145e91810190611d61565b60015b6114be573d80801561148f576040519150601f19603f3d011682016040523d82523d6000602084013e611494565b606091505b5080516000036114b65760405162461bcd60e51b81526004016103dd90611ba8565b805181602001fd5b6001600160e01b031916630a85bd0160e11b149050610794565b506001949350505050565b606060006114f083611701565b600101905060008167ffffffffffffffff81111561151057611510611961565b6040519080825280601f01601f19166020018201604052801561153a576020820181803683370190505b5090508181016020015b600019016f181899199a1a9b1b9c1cb0b131b232b360811b600a86061a8153600a850494508461154457509392505050565b6001600160a01b0382166115cc5760405162461bcd60e51b815260206004820181905260248201527f4552433732313a206d696e7420746f20746865207a65726f206164647265737360448201526064016103dd565b6000818152600260205260409020546001600160a01b0316156116315760405162461bcd60e51b815260206004820152601c60248201527f4552433732313a20746f6b656e20616c7265616479206d696e7465640000000060448201526064016103dd565b6000818152600260205260409020546001600160a01b0316156116965760405162461bcd60e51b815260206004820152601c60248201527f4552433732313a20746f6b656e20616c7265616479206d696e7465640000000060448201526064016103dd565b6001600160a01b038216600081815260036020908152604080832080546001019055848352600290915280822080546001600160a01b0319168417905551839291907fddf252ad1be2c89b69c2b068fc378daa952ba7f163c4a11628f55a4df523b3ef908290a45050565b60008072184f03e93ff9f4daa797ed6e38ed64bf6a1f0160401b83106117405772184f03e93ff9f4daa797ed6e38ed64bf6a1f0160401b830492506040015b6d04ee2d6d415b85acef8100000000831061176c576d04ee2d6d415b85acef8100000000830492506020015b662386f26fc10000831061178a57662386f26fc10000830492506010015b6305f5e10083106117a2576305f5e100830492506008015b61271083106117b657612710830492506004015b606483106117c8576064830492506002015b600a83106102aa5760010192915050565b6001600160e01b03198116811461080457600080fd5b60006020828403121561180157600080fd5b8135610d94816117d9565b60005b8381101561182757818101518382015260200161180f565b50506000910152565b6000815180845261184881602086016020860161180c565b601f01601f19169290920160200192915050565b602081526000610d946020830184611830565b60006020828403121561188157600080fd5b5035919050565b80356001600160a01b038116811461189f57600080fd5b919050565b600080604083850312156118b757600080fd5b6118c083611888565b946020939093013593505050565b6000806000606084860312156118e357600080fd5b6118ec84611888565b92506118fa60208501611888565b9150604084013590509250925092565b60006020828403121561191c57600080fd5b610d9482611888565b6000806040838503121561193857600080fd5b61194183611888565b91506020830135801515811461195657600080fd5b809150509250929050565b634e487b7160e01b600052604160045260246000fd5b6000806000806080858703121561198d57600080fd5b61199685611888565b93506119a460208601611888565b925060408501359150606085013567ffffffffffffffff808211156119c857600080fd5b818701915087601f8301126119dc57600080fd5b8135818111156119ee576119ee611961565b604051601f8201601f19908116603f01168101908382118183101715611a1657611a16611961565b816040528281528a6020848701011115611a2f57600080fd5b82602086016020830137600060208483010152809550505050505092959194509250565b60008060408385031215611a6657600080fd5b611a6f83611888565b9150611a7d60208401611888565b90509250929050565b600181811c90821680611a9a57607f821691505b602082108103611aba57634e487b7160e01b600052602260045260246000fd5b50919050565b6020808252602d908201527f4552433732313a2063616c6c6572206973206e6f7420746f6b656e206f776e6560408201526c1c881bdc88185c1c1c9bdd9959609a1b606082015260800190565b60008351611b1f81846020880161180c565b835190830190611b3381836020880161180c565b01949350505050565b600060018201611b5c57634e487b7160e01b600052601160045260246000fd5b5060010190565b60208082526025908201527f4552433732313a207472616e736665722066726f6d20696e636f72726563742060408201526437bbb732b960d91b606082015260800190565b60208082526032908201527f4552433732313a207472616e7366657220746f206e6f6e20455243373231526560408201527131b2b4bb32b91034b6b83632b6b2b73a32b960711b606082015260800190565b60008251611c0c81846020870161180c565b9190910192915050565b601f82111561047e57600081815260208120601f850160051c81016020861015611c3d5750805b601f850160051c820191505b81811015611c5c57828155600101611c49565b505050505050565b815167ffffffffffffffff811115611c7e57611c7e611961565b611c9281611c8c8454611a86565b84611c16565b602080601f831160018114611cc75760008415611caf5750858301515b600019600386901b1c1916600185901b178555611c5c565b600085815260208120601f198616915b82811015611cf657888601518255948401946001909101908401611cd7565b5085821015611d145787850151600019600388901b60f8161c191681555b5050505050600190811b01905550565b6001600160a01b0385811682528416602082015260408101839052608060608201819052600090611d5790830184611830565b9695505050505050565b600060208284031215611d7357600080fd5b8151610d94816117d956fe697066733a2f2f516d5a70396956767775704652334474633238736a585a55524e73724c7063484a756b72594b7142635064475865697066733a2f2f516d636d456a7339326550476b67434a444869354e443234366d79364d48744b536a765272785077386d4c6a3555697066733a2f2f516d564776774e683550454c757150724b43417258704137665a59794c4a70744e62484d6e6d6d48683753726451697066733a2f2f516d6351356f32554e72427434666458755a61694a377537344544517a3757517338636858395a77364d56656a65a26469706673582212203b13195b3ab2fcb7b0002a9d5f464f63852f75b3e94236094e51fe3f58da2ab964736f6c63430008120033",
    "linkReferences": {}
  },
  "methodIdentifiers": {
    "approve(address,uint256)": "095ea7b3",
    "balanceOf(address)": "70a08231",
    "checkParticipation()": "c1e6cb90",
    "getApproved(uint256)": "081812fc",
    "isApprovedForAll(address,address)": "e985e9c5",
    "mint()": "1249c58b",
    "name()": "06fdde03",
    "ownerOf(uint256)": "6352211e",
    "safeTransferFrom(address,address,uint256)": "42842e0e",
    "safeTransferFrom(address,address,uint256,bytes)": "b88d4fde",
    "setApprovalForAll(address,bool)": "a22cb465",
    "supportsInterface(bytes4)": "01ffc9a7",
    "symbol()": "95d89b41",
    "tokenURI(uint256)": "c87b56dd",
    "transferFrom(address,address,uint256)": "23b872dd"
  },
  "id": 31
}